:100000000C9434000C943E000C943E000C943E0082
:100010000C943E000C943E000C943E000C943E0068
:100020000C943E000C943E000C943E000C943E0058
:100030000C943E000C943E000C943E000C943E0048
:100040000C943E000C943E000C943E000C943E0038
:100050000C943E000C943E000C943E000C943E0028
:100060000C943E000C943E0011241FBECFEFD8E04C
:10007000DEBFCDBF0E94AD000C949D020C94000029
:10008000CF93DF93CDB7DEB78CE790E0FC01108211
:100090008AE790E027E8FC0120830000DF91CF9100
:1000A0000895CF93DF93CDB7DEB78AE790E0FC01E8
:1000B00020818AE790E02064FC01208300008AE729
:1000C00090E0FC018081882F90E080749927892B33
:1000D000B1F788E790E0FC0180819181DF91CF91B9
:1000E0000895CF93DF9300D000D000D0CDB7DEB716
:1000F0009E838D838D819E81092E000CAA0BBB0BE4
:10010000BC01CD010E947B01DC01CB0120E030E08D
:1001100040EA50E4BC01CD010E940C02DC01CB019D
:1001200020E030EC4FE754E4BC01CD010E94070110
:10013000DC01CB0189839A83AB83BC8389819A815B
:10014000AB81BC81BC01CD0126960FB6F894DEBF11
:100150000FBECDBFDF91CF910895CF93DF93CDB781
:10016000DEB728970FB6F894DEBF0FBECDBF84E28E
:1001700090E0FC01208184E290E02061FC0120837A
:1001800087E290E0FC01208187E290E02D7FFC0176
:1001900020830E94400086E290E0FC018081882F4D
:1001A00090E0827099279A8389830E9451009C83F2
:1001B0008B838B819C810E947100DC01CB018D833C
:1001C0009E83AF83B88720E030E040E050E46D814B
:1001D0007E818F8198850E940702882374F089812F
:1001E0009A81892B51F485E290E0FC01208185E21F
:1001F00090E02061FC01208309C085E290E0FC01D1
:10020000208185E290E02F7EFC012083C4CF0E94F4
:100210001B010C94CD010E94C60158F00E94BF0141
:1002200040F029F45F3F29F00C94B60151110C9471
:1002300001020C94BC010E94DE0168F39923B1F322
:10024000552391F3951B550BBB27AA2762177307FC
:10025000840738F09F5F5F4F220F331F441FAA1F90
:10026000A9F335D00E2E3AF0E0E832D0915050404C
:10027000E695001CCAF72BD0FE2F29D0660F771FFA
:10028000881FBB1F261737074807AB07B0E809F0E0
:10029000BB0B802DBF01FF2793585F4F3AF09E3F65
:1002A000510578F00C94B6010C9401025F3FE4F321
:1002B000983ED4F3869577956795B795F7959F5FA8
:1002C000C9F7880F911D9695879597F90895E1E0F4
:1002D000660F771F881FBB1F621773078407BA0753
:1002E00020F0621B730B840BBA0BEE1F88F7E095AE
:1002F0000895E89409C097FB3EF490958095709519
:1003000061957F4F8F4F9F4F9923A9F0F92F96E961
:10031000BB279395F695879577956795B795F111D6
:10032000F8CFFAF4BB0F11F460FF1BC06F5F7F4F73
:100330008F4F9F4F16C0882311F096E911C0772385
:1003400021F09EE8872F762F05C0662371F096E88E
:10035000862F70E060E02AF09A95660F771F881F5D
:10036000DAF7880F9695879597F9089597F99F671B
:1003700080E870E060E008959FEF80EC089500242D
:100380000A941616170618060906089500240A94FA
:1003900012161306140605060895092E0394000C80
:1003A00011F4882352F0BB0F40F4BF2B11F460FF0F
:1003B00004C06F5F7F4F8F4F9F4F089557FD905838
:1003C000440F551F59F05F3F71F04795880F97FB19
:1003D000991F61F09F3F79F08795089512161306D3
:1003E0001406551FF2CF4695F1DF08C01616170602
:1003F0001806991FF1CF8695710561050894089537
:10040000E894BB2766277727CB0197F908950E94C8
:10041000790208F48FEF08950E941F020C94CD0119
:100420000E94BF0138F00E94C60120F0952311F010
:100430000C94B6010C94BC0111240C9401020E948E
:10044000DE0170F3959FC1F3950F50E0551F629F39
:10045000F001729FBB27F00DB11D639FAA27F00D1D
:10046000B11DAA1F649F6627B00DA11D661F829F44
:100470002227B00DA11D621F739FB00DA11D621F29
:10048000839FA00D611D221F749F3327A00D611D46
:10049000231F849F600D211D822F762F6A2F112428
:1004A0009F5750409AF0F1F088234AF0EE0FFF1F5B
:1004B000BB1F661F771F881F91505040A9F79E3FB2
:1004C000510580F00C94B6010C9401025F3FE4F3F7
:1004D000983ED4F3869577956795B795F795E79508
:1004E0009F5FC1F7FE2B880F911D9695879597F911
:1004F0000895990F0008550FAA0BE0E8FEEF1616B5
:100500001706E807F907C0F012161306E407F50707
:1005100098F0621B730B840B950B39F40A2661F07B
:10052000232B242B252B21F408950A2609F4A1401E
:0E053000A6958FEF811D811D0895F894FFCFD1
:00000001FF
